{
  "_format": "hh-sol-artifact-1",
  "contractName": "DeelProtocol",
  "sourceName": "contracts/CCIPClient.sol",
  "abi": [
    {
      "inputs": [
        {
          "internalType": "uint8",
          "name": "status",
          "type": "uint8"
        }
      ],
      "name": "IncorrectJobStatus",
      "type": "error"
    },
    {
      "inputs": [],
      "name": "InvalidJob",
      "type": "error"
    },
    {
      "anonymous": false,
      "inputs": [
        {
          "indexed": true,
          "internalType": "uint256",
          "name": "id",
          "type": "uint256"
        },
        {
          "indexed": true,
          "internalType": "address",
          "name": "owner",
          "type": "address"
        }
      ],
      "name": "JobAdded",
      "type": "event"
    },
    {
      "anonymous": false,
      "inputs": [
        {
          "indexed": true,
          "internalType": "uint256",
          "name": "id",
          "type": "uint256"
        },
        {
          "indexed": true,
          "internalType": "address",
          "name": "taker",
          "type": "address"
        }
      ],
      "name": "JobTaken",
      "type": "event"
    },
    {
      "inputs": [
        {
          "internalType": "address",
          "name": "feeToken",
          "type": "address"
        },
        {
          "internalType": "address",
          "name": "currency",
          "type": "address"
        },
        {
          "internalType": "uint256",
          "name": "value",
          "type": "uint256"
        }
      ],
      "name": "addJob",
      "outputs": [],
      "stateMutability": "nonpayable",
      "type": "function"
    },
    {
      "inputs": [],
      "name": "jobCount",
      "outputs": [
        {
          "internalType": "uint256",
          "name": "",
          "type": "uint256"
        }
      ],
      "stateMutability": "view",
      "type": "function"
    },
    {
      "inputs": [
        {
          "internalType": "uint256",
          "name": "",
          "type": "uint256"
        }
      ],
      "name": "jobs",
      "outputs": [
        {
          "internalType": "address",
          "name": "owner",
          "type": "address"
        },
        {
          "internalType": "address",
          "name": "taker",
          "type": "address"
        },
        {
          "internalType": "address",
          "name": "feeToken",
          "type": "address"
        },
        {
          "internalType": "address",
          "name": "currency",
          "type": "address"
        },
        {
          "internalType": "uint256",
          "name": "value",
          "type": "uint256"
        },
        {
          "internalType": "uint256",
          "name": "originChain",
          "type": "uint256"
        },
        {
          "internalType": "uint256",
          "name": "destinyChain",
          "type": "uint256"
        },
        {
          "internalType": "enum DeelProtocol.Status",
          "name": "status",
          "type": "uint8"
        }
      ],
      "stateMutability": "view",
      "type": "function"
    },
    {
      "inputs": [
        {
          "internalType": "uint256",
          "name": "startPosition",
          "type": "uint256"
        },
        {
          "internalType": "uint256",
          "name": "size",
          "type": "uint256"
        }
      ],
      "name": "listJobs",
      "outputs": [
        {
          "components": [
            {
              "internalType": "address",
              "name": "owner",
              "type": "address"
            },
            {
              "internalType": "address",
              "name": "taker",
              "type": "address"
            },
            {
              "internalType": "address",
              "name": "feeToken",
              "type": "address"
            },
            {
              "internalType": "address",
              "name": "currency",
              "type": "address"
            },
            {
              "internalType": "uint256",
              "name": "value",
              "type": "uint256"
            },
            {
              "internalType": "uint256",
              "name": "originChain",
              "type": "uint256"
            },
            {
              "internalType": "uint256",
              "name": "destinyChain",
              "type": "uint256"
            },
            {
              "internalType": "enum DeelProtocol.Status",
              "name": "status",
              "type": "uint8"
            }
          ],
          "internalType": "struct DeelProtocol.Job[]",
          "name": "",
          "type": "tuple[]"
        }
      ],
      "stateMutability": "view",
      "type": "function"
    },
    {
      "inputs": [
        {
          "internalType": "uint256",
          "name": "jobId",
          "type": "uint256"
        }
      ],
      "name": "takeJob",
      "outputs": [],
      "stateMutability": "nonpayable",
      "type": "function"
    }
  ],
  "bytecode": "0x608060405234801561001057600080fd5b5061071a806100206000396000f3fe608060405234801561001057600080fd5b50600436106100575760003560e01c8063180aedf31461005c5780634c5d8a0f146100e05780639330d9bc146100f7578063ad5ab7401461010c578063d181fcd91461012c575b600080fd5b6100c361006a366004610487565b6001602081905260009182526040909120805491810154600282015460038301546004840154600585015460068601546007909601546001600160a01b0397881697958616969486169590931693919290919060ff1688565b6040516100d79897969594939291906104d8565b60405180910390f35b6100e960005481565b6040519081526020016100d7565b61010a610105366004610487565b61013f565b005b61011f61011a366004610530565b6101e0565b6040516100d79190610552565b61010a61013a366004610627565b6103e6565b6000548110156101625760405163038e47a360e51b815260040160405180910390fd5b600081815260016020819052604090912090600782015460ff16600581111561018d5761018d6104a0565b146101b35760405163cbcb3dc160e01b8152600060048201526024015b60405180910390fd5b600181018054336001600160a01b0319909116179055466006820155600701805460ff1916600217905550565b606060005483106102335760405162461bcd60e51b815260206004820152601c60248201527f537461727420706f736974696f6e206f7574206f6620626f756e64730000000060448201526064016101aa565b600061023f8385610679565b905060005481111561025057506000545b600061025c858361068c565b905060008167ffffffffffffffff8111156102795761027961069f565b6040519080825280602002602001820160405280156102ef57816020015b6102dc6040805161010081018252600080825260208201819052918101829052606081018290526080810182905260a0810182905260c081018290529060e082015290565b8152602001906001900390816102975790505b50905060005b828110156103da576001600061030b838a610679565b8152602080820192909252604090810160002081516101008101835281546001600160a01b03908116825260018301548116948201949094526002820154841692810192909252600381015490921660608201526004820154608082015260058083015460a0830152600683015460c0830152600783015491929160e084019160ff909116908111156103a0576103a06104a0565b60058111156103b1576103b16104a0565b815250508282815181106103c7576103c76106b5565b60209081029190910101526001016102f5565b50925050505b92915050565b600080548152600160205260408082208054336001600160a01b03199182168117835560028301805483166001600160a01b038a81169190911790915560038401805490931690881617909155600482018590554660058301558354925191939092917f327cf9892362c183c2af9b498e32bc51574d160377970d6d50080a3e8482e4139190a360008054908061047c836106cb565b919050555050505050565b60006020828403121561049957600080fd5b5035919050565b634e487b7160e01b600052602160045260246000fd5b600681106104d457634e487b7160e01b600052602160045260246000fd5b9052565b6001600160a01b03898116825288811660208301528781166040830152861660608201526080810185905260a0810184905260c08101839052610100810161052360e08301846104b6565b9998505050505050505050565b6000806040838503121561054357600080fd5b50508035926020909101359150565b602080825282518282018190526000919060409081850190868401855b828110156105fe57815180516001600160a01b039081168652878201518116888701528682015116868601526060808201516105b5828801826001600160a01b03169052565b50506080818101519086015260a0808201519086015260c0808201519086015260e090810151906105e8818701836104b6565b505061010093909301929085019060010161056f565b5091979650505050505050565b80356001600160a01b038116811461062257600080fd5b919050565b60008060006060848603121561063c57600080fd5b6106458461060b565b92506106536020850161060b565b9150604084013590509250925092565b634e487b7160e01b600052601160045260246000fd5b808201808211156103e0576103e0610663565b818103818111156103e0576103e0610663565b634e487b7160e01b600052604160045260246000fd5b634e487b7160e01b600052603260045260246000fd5b6000600182016106dd576106dd610663565b506001019056fea2646970667358221220e5d42f80f9219ddb86d26a3a92694d8222bee1ebff9803611a3fdbdd6e5486a264736f6c63430008180033",
  "linkReferences": {},
  "deployedLinkReferences": {}
}