{
  "_format": "hh-sol-artifact-1",
  "contractName": "DeelProtocol",
  "sourceName": "contracts/DeelProtocol.sol",
  "abi": [
    {
      "inputs": [
        {
          "internalType": "address",
          "name": "router",
          "type": "address"
        },
        {
          "internalType": "address",
          "name": "feeToken",
          "type": "address"
        },
        {
          "internalType": "uint64",
          "name": "_chainSelector",
          "type": "uint64"
        },
        {
          "internalType": "address",
          "name": "main",
          "type": "address"
        }
      ],
      "stateMutability": "nonpayable",
      "type": "constructor"
    },
    {
      "inputs": [
        {
          "internalType": "uint8",
          "name": "status",
          "type": "uint8"
        }
      ],
      "name": "IncorrectJobStatus",
      "type": "error"
    },
    {
      "inputs": [
        {
          "internalType": "uint64",
          "name": "chainSelector",
          "type": "uint64"
        }
      ],
      "name": "InvalidChain",
      "type": "error"
    },
    {
      "inputs": [],
      "name": "InvalidConfig",
      "type": "error"
    },
    {
      "inputs": [],
      "name": "InvalidJob",
      "type": "error"
    },
    {
      "inputs": [
        {
          "internalType": "address",
          "name": "router",
          "type": "address"
        }
      ],
      "name": "InvalidRouter",
      "type": "error"
    },
    {
      "anonymous": false,
      "inputs": [
        {
          "indexed": true,
          "internalType": "uint256",
          "name": "id",
          "type": "uint256"
        },
        {
          "indexed": true,
          "internalType": "address",
          "name": "owner",
          "type": "address"
        }
      ],
      "name": "JobAdded",
      "type": "event"
    },
    {
      "anonymous": false,
      "inputs": [
        {
          "indexed": true,
          "internalType": "uint256",
          "name": "id",
          "type": "uint256"
        },
        {
          "indexed": true,
          "internalType": "address",
          "name": "taker",
          "type": "address"
        }
      ],
      "name": "JobTaken",
      "type": "event"
    },
    {
      "anonymous": false,
      "inputs": [
        {
          "indexed": false,
          "internalType": "bytes32",
          "name": "messageId",
          "type": "bytes32"
        }
      ],
      "name": "MessageReceived",
      "type": "event"
    },
    {
      "anonymous": false,
      "inputs": [
        {
          "indexed": false,
          "internalType": "bytes32",
          "name": "messageId",
          "type": "bytes32"
        }
      ],
      "name": "MessageSent",
      "type": "event"
    },
    {
      "inputs": [],
      "name": "FEES_VAULT",
      "outputs": [
        {
          "internalType": "address",
          "name": "",
          "type": "address"
        }
      ],
      "stateMutability": "view",
      "type": "function"
    },
    {
      "inputs": [],
      "name": "JOB_POSTING_FEE_AMOUNT",
      "outputs": [
        {
          "internalType": "uint256",
          "name": "",
          "type": "uint256"
        }
      ],
      "stateMutability": "view",
      "type": "function"
    },
    {
      "inputs": [],
      "name": "MAIN_CHAINID",
      "outputs": [
        {
          "internalType": "uint256",
          "name": "",
          "type": "uint256"
        }
      ],
      "stateMutability": "view",
      "type": "function"
    },
    {
      "inputs": [],
      "name": "MAIN_CHAIN_SELECTOR",
      "outputs": [
        {
          "internalType": "uint64",
          "name": "",
          "type": "uint64"
        }
      ],
      "stateMutability": "view",
      "type": "function"
    },
    {
      "inputs": [],
      "name": "MAIN_CONTRACT_ADDRESS",
      "outputs": [
        {
          "internalType": "address",
          "name": "",
          "type": "address"
        }
      ],
      "stateMutability": "view",
      "type": "function"
    },
    {
      "inputs": [
        {
          "internalType": "address",
          "name": "feeToken",
          "type": "address"
        },
        {
          "internalType": "address",
          "name": "currency",
          "type": "address"
        },
        {
          "internalType": "uint256",
          "name": "value",
          "type": "uint256"
        }
      ],
      "name": "addJob",
      "outputs": [],
      "stateMutability": "nonpayable",
      "type": "function"
    },
    {
      "inputs": [
        {
          "internalType": "uint256",
          "name": "",
          "type": "uint256"
        },
        {
          "internalType": "uint256",
          "name": "",
          "type": "uint256"
        }
      ],
      "name": "applicationChainSeletor",
      "outputs": [
        {
          "internalType": "uint64",
          "name": "",
          "type": "uint64"
        }
      ],
      "stateMutability": "view",
      "type": "function"
    },
    {
      "inputs": [
        {
          "internalType": "uint256",
          "name": "",
          "type": "uint256"
        },
        {
          "internalType": "uint256",
          "name": "",
          "type": "uint256"
        }
      ],
      "name": "applicationSenders",
      "outputs": [
        {
          "internalType": "address",
          "name": "",
          "type": "address"
        }
      ],
      "stateMutability": "view",
      "type": "function"
    },
    {
      "inputs": [
        {
          "internalType": "uint256",
          "name": "jobId",
          "type": "uint256"
        }
      ],
      "name": "applyForJob",
      "outputs": [],
      "stateMutability": "nonpayable",
      "type": "function"
    },
    {
      "inputs": [
        {
          "internalType": "address",
          "name": "",
          "type": "address"
        }
      ],
      "name": "arweaveHash",
      "outputs": [
        {
          "internalType": "bytes",
          "name": "",
          "type": "bytes"
        }
      ],
      "stateMutability": "view",
      "type": "function"
    },
    {
      "inputs": [
        {
          "components": [
            {
              "internalType": "bytes32",
              "name": "messageId",
              "type": "bytes32"
            },
            {
              "internalType": "uint64",
              "name": "sourceChainSelector",
              "type": "uint64"
            },
            {
              "internalType": "bytes",
              "name": "sender",
              "type": "bytes"
            },
            {
              "internalType": "bytes",
              "name": "data",
              "type": "bytes"
            },
            {
              "components": [
                {
                  "internalType": "address",
                  "name": "token",
                  "type": "address"
                },
                {
                  "internalType": "uint256",
                  "name": "amount",
                  "type": "uint256"
                }
              ],
              "internalType": "struct Client.EVMTokenAmount[]",
              "name": "destTokenAmounts",
              "type": "tuple[]"
            }
          ],
          "internalType": "struct Client.Any2EVMMessage",
          "name": "message",
          "type": "tuple"
        }
      ],
      "name": "ccipReceive",
      "outputs": [],
      "stateMutability": "nonpayable",
      "type": "function"
    },
    {
      "inputs": [],
      "name": "chainSelector",
      "outputs": [
        {
          "internalType": "uint64",
          "name": "",
          "type": "uint64"
        }
      ],
      "stateMutability": "view",
      "type": "function"
    },
    {
      "inputs": [],
      "name": "chainid",
      "outputs": [
        {
          "internalType": "uint256",
          "name": "",
          "type": "uint256"
        }
      ],
      "stateMutability": "view",
      "type": "function"
    },
    {
      "inputs": [
        {
          "internalType": "bytes",
          "name": "_arwavehash",
          "type": "bytes"
        }
      ],
      "name": "createDeelId",
      "outputs": [],
      "stateMutability": "nonpayable",
      "type": "function"
    },
    {
      "inputs": [
        {
          "internalType": "uint256",
          "name": "jobId",
          "type": "uint256"
        },
        {
          "internalType": "uint256",
          "name": "startPosition",
          "type": "uint256"
        },
        {
          "internalType": "uint256",
          "name": "size",
          "type": "uint256"
        }
      ],
      "name": "getJobApplications",
      "outputs": [
        {
          "internalType": "uint256",
          "name": "applicationsCount",
          "type": "uint256"
        },
        {
          "internalType": "address[]",
          "name": "applicants",
          "type": "address[]"
        },
        {
          "internalType": "uint64[]",
          "name": "chainSelectors",
          "type": "uint64[]"
        }
      ],
      "stateMutability": "view",
      "type": "function"
    },
    {
      "inputs": [],
      "name": "getRouter",
      "outputs": [
        {
          "internalType": "address",
          "name": "",
          "type": "address"
        }
      ],
      "stateMutability": "view",
      "type": "function"
    },
    {
      "inputs": [],
      "name": "jobCount",
      "outputs": [
        {
          "internalType": "uint256",
          "name": "",
          "type": "uint256"
        }
      ],
      "stateMutability": "view",
      "type": "function"
    },
    {
      "inputs": [
        {
          "internalType": "uint256",
          "name": "",
          "type": "uint256"
        }
      ],
      "name": "jobs",
      "outputs": [
        {
          "internalType": "address",
          "name": "owner",
          "type": "address"
        },
        {
          "internalType": "address",
          "name": "taker",
          "type": "address"
        },
        {
          "internalType": "address",
          "name": "feeToken",
          "type": "address"
        },
        {
          "internalType": "address",
          "name": "currency",
          "type": "address"
        },
        {
          "internalType": "uint256",
          "name": "value",
          "type": "uint256"
        },
        {
          "internalType": "uint256",
          "name": "originChain",
          "type": "uint256"
        },
        {
          "internalType": "uint256",
          "name": "destinyChain",
          "type": "uint256"
        },
        {
          "internalType": "uint256",
          "name": "applicantCount",
          "type": "uint256"
        },
        {
          "internalType": "enum DeelProtocol.Status",
          "name": "status",
          "type": "uint8"
        }
      ],
      "stateMutability": "view",
      "type": "function"
    },
    {
      "inputs": [
        {
          "internalType": "uint256",
          "name": "startPosition",
          "type": "uint256"
        },
        {
          "internalType": "uint256",
          "name": "size",
          "type": "uint256"
        }
      ],
      "name": "listJobs",
      "outputs": [
        {
          "components": [
            {
              "internalType": "address",
              "name": "owner",
              "type": "address"
            },
            {
              "internalType": "address",
              "name": "taker",
              "type": "address"
            },
            {
              "internalType": "address",
              "name": "feeToken",
              "type": "address"
            },
            {
              "internalType": "address",
              "name": "currency",
              "type": "address"
            },
            {
              "internalType": "uint256",
              "name": "value",
              "type": "uint256"
            },
            {
              "internalType": "uint256",
              "name": "originChain",
              "type": "uint256"
            },
            {
              "internalType": "uint256",
              "name": "destinyChain",
              "type": "uint256"
            },
            {
              "internalType": "uint256",
              "name": "applicantCount",
              "type": "uint256"
            },
            {
              "internalType": "enum DeelProtocol.Status",
              "name": "status",
              "type": "uint8"
            }
          ],
          "internalType": "struct DeelProtocol.Job[]",
          "name": "",
          "type": "tuple[]"
        }
      ],
      "stateMutability": "view",
      "type": "function"
    },
    {
      "inputs": [],
      "name": "onChildChain",
      "outputs": [
        {
          "internalType": "bool",
          "name": "",
          "type": "bool"
        }
      ],
      "stateMutability": "view",
      "type": "function"
    },
    {
      "inputs": [
        {
          "internalType": "uint256",
          "name": "_chainId",
          "type": "uint256"
        }
      ],
      "name": "overrideChainid",
      "outputs": [],
      "stateMutability": "nonpayable",
      "type": "function"
    },
    {
      "inputs": [
        {
          "internalType": "address",
          "name": "",
          "type": "address"
        }
      ],
      "name": "reputation",
      "outputs": [
        {
          "internalType": "uint256",
          "name": "posted",
          "type": "uint256"
        },
        {
          "internalType": "uint256",
          "name": "applied",
          "type": "uint256"
        },
        {
          "internalType": "uint256",
          "name": "assigned",
          "type": "uint256"
        },
        {
          "internalType": "uint256",
          "name": "deliver",
          "type": "uint256"
        },
        {
          "internalType": "uint256",
          "name": "unfulfiled",
          "type": "uint256"
        }
      ],
      "stateMutability": "view",
      "type": "function"
    },
    {
      "inputs": [
        {
          "internalType": "uint64",
          "name": "destChainSelector",
          "type": "uint64"
        }
      ],
      "name": "s_chains",
      "outputs": [
        {
          "internalType": "bytes",
          "name": "extraArgsBytes",
          "type": "bytes"
        }
      ],
      "stateMutability": "view",
      "type": "function"
    },
    {
      "inputs": [],
      "name": "s_feeToken",
      "outputs": [
        {
          "internalType": "contract IERC20",
          "name": "",
          "type": "address"
        }
      ],
      "stateMutability": "view",
      "type": "function"
    },
    {
      "inputs": [
        {
          "internalType": "uint256",
          "name": "jobId",
          "type": "uint256"
        }
      ],
      "name": "selectApplicant",
      "outputs": [],
      "stateMutability": "nonpayable",
      "type": "function"
    },
    {
      "inputs": [
        {
          "internalType": "bytes4",
          "name": "interfaceId",
          "type": "bytes4"
        }
      ],
      "name": "supportsInterface",
      "outputs": [
        {
          "internalType": "bool",
          "name": "",
          "type": "bool"
        }
      ],
      "stateMutability": "pure",
      "type": "function"
    }
  ],
  "bytecode": "0x60e06040523480156200001157600080fd5b50604051620021863803806200218683398101604081905262000034916200014d565b836001600160a01b03811662000064576040516335fdcccd60e21b81526000600482015260240160405180910390fd5b6001600160a01b0390811660805281811660a05246600155600280546001600160401b0385166001600160e01b031990911617680100000000000000008684168102919091179182905560405163095ea7b360e01b81528784166004820152600019602482015291049091169063095ea7b3906044016020604051808303816000875af1158015620000fa573d6000803e3d6000fd5b505050506040513d601f19601f82011682018060405250810190620001209190620001b8565b50503060c05250620001e3915050565b80516001600160a01b03811681146200014857600080fd5b919050565b600080600080608085870312156200016457600080fd5b6200016f8562000130565b93506200017f6020860162000130565b60408601519093506001600160401b03811681146200019d57600080fd5b9150620001ad6060860162000130565b905092959194509250565b600060208284031215620001cb57600080fd5b81518015158114620001dc57600080fd5b9392505050565b60805160a05160c051611f50620002366000396000818161030501528181610c2a0152610cc901526000818161032c0152610e4f0152600081816103af0152818161091b01526111ae0152611f506000f3fe608060405234801561001057600080fd5b506004361061018e5760003560e01c8063971b3aee116100de578063d181fcd911610097578063e0d85b8e11610071578063e0d85b8e1461048d578063e2e254eb1461049b578063f4a52ef3146104aa578063ff2deec3146104bd57600080fd5b8063d181fcd914610454578063d797215614610467578063e0c94ae51461047a57600080fd5b8063971b3aee1461037a578063ad5ab7401461038d578063b0f479a1146103ad578063b9f79451146103d3578063bc55563414610438578063cd84980e1461044b57600080fd5b80635dc5ebdb1161014b578063848a822911610125578063848a822914610327578063854d26b11461034e57806385572ffb1461035b578063891e61681461037057600080fd5b80635dc5ebdb146102cd5780636e6170aa146102ed57806380a704f11461030057600080fd5b806301ffc9a714610193578063180aedf3146101bb5780634014c7861461023e5780634c5d8a0f146102605780634e4bc8471461027757806350ecffe9146102a2575b600080fd5b6101a66101a13660046114a4565b6104dc565b60405190151581526020015b60405180910390f35b6102296101c93660046114d5565b60046020819052600091825260409091208054600182015460028301546003840154948401546005850154600686015460078701546008909701546001600160a01b03968716989587169794871696909516949293919290919060ff1689565b6040516101b299989796959493929190611518565b61025161024c366004611579565b610513565b6040516101b2939291906115a5565b61026960005481565b6040519081526020016101b2565b60025461028a906001600160401b031681565b6040516001600160401b0390911681526020016101b2565b6102b56102b036600461163d565b6107f2565b6040516001600160a01b0390911681526020016101b2565b6102e06102db366004611684565b61082a565b6040516101b291906116f1565b61028a6102fb36600461163d565b6108c4565b6102b57f000000000000000000000000000000000000000000000000000000000000000081565b6102b57f000000000000000000000000000000000000000000000000000000000000000081565b61026965271bb7b9b00081565b61036e610369366004611704565b610910565b005b61026962014a3481565b61036e61038836600461173e565b61096f565b6103a061039b36600461163d565b61098e565b6040516101b291906117af565b7f00000000000000000000000000000000000000000000000000000000000000006102b5565b6104106103e136600461188e565b600560205260009081526040902080546001820154600283015460038401546004909401549293919290919085565b604080519586526020860194909452928401919091526060830152608082015260a0016101b2565b6102e061044636600461188e565b610ba4565b61026960015481565b61036e6104623660046118ab565b610bbd565b61036e6104753660046114d5565b600155565b61036e6104883660046114d5565b610db1565b60015462014a3414156101a6565b61028a678f90b8876dee653881565b61036e6104b83660046114d5565b610dca565b6002546102b5906801000000000000000090046001600160a01b031681565b60006001600160e01b031982166385572ffb60e01b148061050d57506001600160e01b031982166301ffc9a760e01b145b92915050565b600083815260046020818152604080842081516101208101835281546001600160a01b03908116825260018301548116948201949094526002820154841692810192909252600381015490921660608281019190915292820154608082015260058083015460a0830152600683015460c0830152600783015460e083015260088301548493869392909161010084019160ff909116908111156105b8576105b86114ee565b60058111156105c9576105c96114ee565b90525060e081015160008981526007602052604090205490955090915086106106395760405162461bcd60e51b815260206004820152601c60248201527f537461727420706f736974696f6e206f7574206f6620626f756e64730000000060448201526064015b60405180910390fd5b60006106458688611902565b9050848111156106525750835b600061065e8883611915565b9050806001600160401b0381111561067857610678611928565b6040519080825280602002602001820160405280156106a1578160200160208202803683370190505b509450806001600160401b038111156106bc576106bc611928565b6040519080825280602002602001820160405280156106e5578160200160208202803683370190505b50935060005b818110156107e55760008a815260076020526040902061070b828b611902565b8154811061071b5761071b61193e565b9060005260206000200160009054906101000a90046001600160a01b031686828151811061074b5761074b61193e565b6001600160a01b0390921660209283029190910182015260008b815260089091526040902061077a828b611902565b8154811061078a5761078a61193e565b90600052602060002090600491828204019190066008029054906101000a90046001600160401b03168582815181106107c5576107c561193e565b6001600160401b03909216602092830291909101909101526001016106eb565b5050505093509350939050565b6007602052816000526040600020818154811061080e57600080fd5b6000918252602090912001546001600160a01b03169150829050565b6003602052600090815260409020805461084390611954565b80601f016020809104026020016040519081016040528092919081815260200182805461086f90611954565b80156108bc5780601f10610891576101008083540402835291602001916108bc565b820191906000526020600020905b81548152906001019060200180831161089f57829003601f168201915b505050505081565b600860205281600052604060002081815481106108e057600080fd5b9060005260206000209060049182820401919006600802915091509054906101000a90046001600160401b031681565b336001600160a01b037f0000000000000000000000000000000000000000000000000000000000000000161461095b576040516335fdcccd60e21b8152336004820152602401610630565b61096c61096782611b31565b610eb3565b50565b336000908152600660205260409020610989828483611c2d565b505050565b606060005483106109e15760405162461bcd60e51b815260206004820152601c60248201527f537461727420706f736974696f6e206f7574206f6620626f756e6473000000006044820152606401610630565b60006109ed8385611902565b90506000548111156109fe57506000545b6000610a0a8583611915565b90506000816001600160401b03811115610a2657610a26611928565b604051908082528060200260200182016040528015610aa457816020015b610a916040805161012081018252600080825260208201819052918101829052606081018290526080810182905260a0810182905260c0810182905260e081018290529061010082015290565b815260200190600190039081610a445790505b50905060005b82811015610b9a5760046000610ac0838a611902565b8152602080820192909252604090810160002081516101208101835281546001600160a01b03908116825260018301548116948201949094526002820154841692810192909252600381015490921660608201526004820154608082015260058083015460a0830152600683015460c0830152600783015460e0830152600883015491929161010084019160ff90911690811115610b6057610b606114ee565b6005811115610b7157610b716114ee565b81525050828281518110610b8757610b8761193e565b6020908102919091010152600101610aaa565b5095945050505050565b6006602052600090815260409020805461084390611954565b600080548152600460208190526040918290208054336001600160a01b03199182168117835560028301805483166001600160a01b038a81169182179092556003850180549094168983161790935583850187905546600585015594516323b872dd60e01b8152938401527f0000000000000000000000000000000000000000000000000000000000000000909316602483015265271bb7b9b000604483015291906323b872dd906064016020604051808303816000875af1158015610c87573d6000803e3d6000fd5b505050506040513d601f19601f82011682018060405250810190610cab9190611cec565b506040516323b872dd60e01b81523360048201526001600160a01b037f000000000000000000000000000000000000000000000000000000000000000081166024830152604482018490528416906323b872dd906064016020604051808303816000875af1158015610d21573d6000803e3d6000fd5b505050506040513d601f19601f82011682018060405250810190610d459190611cec565b506000805460405133927f327cf9892362c183c2af9b498e32bc51574d160377970d6d50080a3e8482e41391a3600080549080610d8183611d0e565b9091555050336000908152600560205260408120805460019290610da6908490611902565b909155505050505050565b60025461096c90829033906001600160401b0316610f76565b60015462014a3414610e9a5760025460408051602081018490523360601b6bffffffffffffffffffffffff19168183015260c09290921b6001600160c01b03191660548301528051808303603c018152605c830190915290600090610e359082908490607c01611d27565b60408051601f198184030181528282526001600160a01b037f0000000000000000000000000000000000000000000000000000000000000000166020840152925061098991678f90b8876dee6538910160405160208183030381529060405283611074565b60025461096c90829033906001600160401b0316611280565b6000808260600151806020019051810190610ece9190611d60565b90925090506000826004811115610ee757610ee76114ee565b03610ef657610989838261132c565b6001826004811115610f0a57610f0a6114ee565b03610f1957610989838261135d565b6002826004811115610f2d57610f2d6114ee565b03610f3c576109898382611387565b82516040519081527fe29dc34207c78fc0f6048a32f159139c33339c6d6df8b07dcd33f6d699ff23279060200160405180910390a1505050565b826000541015610f995760405163038e47a360e51b815260040160405180910390fd5b60008381526007602081815260408084208054600180820183559186528386200180546001600160a01b0319166001600160a01b0389161790558785526008808452828620805480840182559087528487206004808304909101805460039093169093026101000a6001600160401b0381810219909316928a1602919091179091558886529092528320909101805491929091611037908490611902565b90915550506001600160a01b0382166000908152600560205260408120600190810180549192909161106a908490611902565b9091555050505050565b60408051600080825260208201909252816110b1565b604080518082019091526000808252602082015281526020019060019003908161108a5790505b50905060006040518060a00160405280858152602001848152602001838152602001600260089054906101000a90046001600160a01b03166001600160a01b0316815260200160036000886001600160401b03166001600160401b03168152602001908152602001600020805461112790611954565b80601f016020809104026020016040519081016040528092919081815260200182805461115390611954565b80156111a05780601f10611175576101008083540402835291602001916111a0565b820191906000526020600020905b81548152906001019060200180831161118357829003601f168201915b5050505050815250905060007f00000000000000000000000000000000000000000000000000000000000000006001600160a01b03166396f4e9f987846040518363ffffffff1660e01b81526004016111fa929190611df0565b6020604051808303816000875af1158015611219573d6000803e3d6000fd5b505050506040513d601f19601f8201168201806040525081019061123d9190611ebe565b90507f54791b38f3859327992a1ca0590ad3c0f08feba98d1a4f56ab0dca74d203392a8160405161127091815260200190565b60405180910390a1505050505050565b60008381526004602052604090206001600882015460ff1660058111156112a9576112a96114ee565b146112ca5760405163cbcb3dc160e01b815260006004820152602401610630565b600181810180546001600160a01b0386166001600160a01b031990911681179091556001600160401b038416600684015560088301805460ff191660029081179091556000918252600560205260408220018054909190610da6908490611902565b6000806000838060200190518101906113459190611ed7565b925092509250611356838383610f76565b5050505050565b6000806000838060200190518101906113769190611ed7565b925092509250611356838383611280565b6000806000838060200190518101906113a09190611ed7565b925092509250611356838383600083815260046020526040902060018101546001600160a01b038481169116146114115760405162461bcd60e51b815260206004820152601560248201527424b73b30b634b2102537b1103232b634bb32b932b960591b6044820152606401610630565b6002600882015460ff16600581111561142c5761142c6114ee565b148061145057506003600882015460ff16600581111561144e5761144e6114ee565b145b6114915760405162461bcd60e51b8152602060048201526012602482015271556e76616c6964204a6f622053746174757360701b6044820152606401610630565b600801805460ff19166003179055505050565b6000602082840312156114b657600080fd5b81356001600160e01b0319811681146114ce57600080fd5b9392505050565b6000602082840312156114e757600080fd5b5035919050565b634e487b7160e01b600052602160045260246000fd5b60068110611514576115146114ee565b9052565b6001600160a01b038a8116825289811660208301528881166040830152871660608201526080810186905260a0810185905260c0810184905260e08101839052610120810161156b610100830184611504565b9a9950505050505050505050565b60008060006060848603121561158e57600080fd5b505081359360208301359350604090920135919050565b6000606082018583526020606081850152818651808452608086019150828801935060005b818110156115ef5784516001600160a01b0316835293830193918301916001016115ca565b50508481036040860152855180825290820192508186019060005b8181101561162f5782516001600160401b03168552938301939183019160010161160a565b509298975050505050505050565b6000806040838503121561165057600080fd5b50508035926020909101359150565b6001600160401b038116811461096c57600080fd5b803561167f8161165f565b919050565b60006020828403121561169657600080fd5b81356114ce8161165f565b60005b838110156116bc5781810151838201526020016116a4565b50506000910152565b600081518084526116dd8160208601602086016116a1565b601f01601f19169290920160200192915050565b6020815260006114ce60208301846116c5565b60006020828403121561171657600080fd5b81356001600160401b0381111561172c57600080fd5b820160a081850312156114ce57600080fd5b6000806020838503121561175157600080fd5b82356001600160401b038082111561176857600080fd5b818501915085601f83011261177c57600080fd5b81358181111561178b57600080fd5b86602082850101111561179d57600080fd5b60209290920196919550909350505050565b602080825282518282018190526000919060409081850190868401855b8281101561186c57815180516001600160a01b03908116865287820151168786015285810151611806878701826001600160a01b03169052565b506060818101516001600160a01b0316908601526080808201519086015260a0808201519086015260c0808201519086015260e08082015190860152610100908101519061185681870183611504565b50506101209390930192908501906001016117cc565b5091979650505050505050565b6001600160a01b038116811461096c57600080fd5b6000602082840312156118a057600080fd5b81356114ce81611879565b6000806000606084860312156118c057600080fd5b83356118cb81611879565b925060208401356118db81611879565b929592945050506040919091013590565b634e487b7160e01b600052601160045260246000fd5b8082018082111561050d5761050d6118ec565b8181038181111561050d5761050d6118ec565b634e487b7160e01b600052604160045260246000fd5b634e487b7160e01b600052603260045260246000fd5b600181811c9082168061196857607f821691505b60208210810361198857634e487b7160e01b600052602260045260246000fd5b50919050565b604080519081016001600160401b03811182821017156119b0576119b0611928565b60405290565b60405160a081016001600160401b03811182821017156119b0576119b0611928565b604051601f8201601f191681016001600160401b0381118282101715611a0057611a00611928565b604052919050565b60006001600160401b03821115611a2157611a21611928565b50601f01601f191660200190565b600082601f830112611a4057600080fd5b8135611a53611a4e82611a08565b6119d8565b818152846020838601011115611a6857600080fd5b816020850160208301376000918101602001919091529392505050565b600082601f830112611a9657600080fd5b813560206001600160401b03821115611ab157611ab1611928565b611abf818360051b016119d8565b82815260069290921b84018101918181019086841115611ade57600080fd5b8286015b84811015611b265760408189031215611afb5760008081fd5b611b0361198e565b8135611b0e81611879565b81528185013585820152835291830191604001611ae2565b509695505050505050565b600060a08236031215611b4357600080fd5b611b4b6119b6565b82358152611b5b60208401611674565b602082015260408301356001600160401b0380821115611b7a57600080fd5b611b8636838701611a2f565b60408401526060850135915080821115611b9f57600080fd5b611bab36838701611a2f565b60608401526080850135915080821115611bc457600080fd5b50611bd136828601611a85565b60808301525092915050565b601f821115610989576000816000526020600020601f850160051c81016020861015611c065750805b601f850160051c820191505b81811015611c2557828155600101611c12565b505050505050565b6001600160401b03831115611c4457611c44611928565b611c5883611c528354611954565b83611bdd565b6000601f841160018114611c8c5760008515611c745750838201355b600019600387901b1c1916600186901b178355611356565b600083815260209020601f19861690835b82811015611cbd5786850135825560209485019460019092019101611c9d565b5086821015611cda5760001960f88860031b161c19848701351681555b505060018560011b0183555050505050565b600060208284031215611cfe57600080fd5b815180151581146114ce57600080fd5b600060018201611d2057611d206118ec565b5060010190565b600060058410611d3957611d396114ee565b8360f81b82528251611d528160018501602087016116a1565b919091016001019392505050565b60008060408385031215611d7357600080fd5b825160058110611d8257600080fd5b60208401519092506001600160401b03811115611d9e57600080fd5b8301601f81018513611daf57600080fd5b8051611dbd611a4e82611a08565b818152866020838501011115611dd257600080fd5b611de38260208301602086016116a1565b8093505050509250929050565b600060406001600160401b03851683526020604081850152845160a06040860152611e1e60e08601826116c5565b905081860151603f1980878403016060880152611e3b83836116c5565b6040890151888203830160808a01528051808352908601945060009350908501905b80841015611e8f57845180516001600160a01b0316835286015186830152938501936001939093019290860190611e5d565b5060608901516001600160a01b031660a08901526080890151888203830160c08a0152955061156b81876116c5565b600060208284031215611ed057600080fd5b5051919050565b600080600060608486031215611eec57600080fd5b835192506020840151611efe81611879565b6040850151909250611f0f8161165f565b80915050925092509256fea2646970667358221220cdcbbb32709773163d24cc31703e502c57d1758cd68eab7759d87b8cdbdfda9464736f6c63430008180033",
  "linkReferences": {},
  "deployedLinkReferences": {}
}